:100000000C9446000C9465000C9465000C946500FB
:100010000C9465000C9465000C9465000C946500CC
:100020000C9465000C9465000C9465000C946500BC
:100030000C9465000C9465000C9465000C946500AC
:100040000C9465000C9465000C9465000C9465009C
:100050000C9465000C9465000C9465000C9465008C
:100060000C9465000C9465000C9465000C9465007C
:100070000C9465000C9465000C9465000C9465006C
:100080000C9465000C9465000C94650011241FBE4F
:10009000CFEFD0E1DEBFCDBF11E0A0E0B1E0ECEBEF
:1000A000FCE000E00BBF02C007900D92AC30B1073E
:1000B000D9F711E0ACE0B1E001C01D92A931B10760
:1000C000E1F70E9467000C945C060C940000FF921C
:1000D0000F931F93CF93DF938FE39CE90197F1F781
:1000E00000C0000080E490E068E340E00E94B002BD
:1000F00082E30E943F03EBC0F02EFF0CFF0CFF0CCD
:100100008F2D90E06FEF40E020E00E949301CF2D13
:10011000D0E0CE0101966FEF4EE520E00E94930102
:10012000CE0102966FEF44EE20E00E949301CE01D3
:1001300003966DE14BED26E10E949301CE010496FA
:1001400060E040E02FEF0E949301CE01059661E050
:1001500040E02FEF0E949301CE0106966FE340E04E
:1001600029E90E949301CE0107966FEF40E02DED43
:100170000E9493010E9454028FEF91EEA4E08150FF
:100180009040A040E1F700C000000F5F1F4F083013
:1001900011050CF4B1CF8FEF99E6A8E181509040A2
:1001A000A040E1F700C00000C0E4D0E0CE010E9412
:1001B00037038FEF96E7A1E081509040A040E1F730
:1001C00000C0000021979FEFCF3FD90779F708E3E0
:1001D000802F90E040E050E06FEF70E00E94F1016E
:1001E000C02FD0E0CE01019640E05EE56FEF70E0F9
:1001F0000E94F101CE01029640E054EE6FEF70E0F4
:100200000E94F101CE01039646E15BED6DE170E0E5
:100210000E94F101CE0104964FEF50E060E070E0E3
:100220000E94F101CE0105964FEF50E061E070E0D1
:100230000E94F101CE01069649E950E06FE370E0BB
:100240000E94F101CE0107964DED50E06FEF70E096
:100250000E94F1010E9454028FEF91EEA4E08150C0
:100260009040A040E1F700C000000850083F09F0AE
:10027000AFCF8FEF99E6A8E181509040A040E1F721
:1002800000C00000C0E0D0E0CE010E9437038FEF35
:1002900096E7A1E081509040A040E1F700C0000047
:1002A0002196C134D10581F78AE090E00E9439049B
:1002B0008AE090E00E9439040E9427038FEF93EDBB
:1002C000A0E381509040A040E1F700C0000000E0B2
:1002D00010E05DCF87EC90E00197F1F700C00000DF
:1002E000089520EA3FE007C0F9013197F1F7615026
:1002F0007040804090406115710581059105A1F71E
:100300000895E82FF0E0DF012E9181E090E002C037
:10031000880F991F6A95E2F7282B2C93908180957E
:10032000892380830895E0910E01F0910F018E17CB
:100330009F0708F055C0309104013F3F09F43FC0CA
:10034000309104013230B0F1E0910401F0E03196D7
:10035000416050E04E9FD0014F9FB00D5E9FB00DA9
:100360001124A138B10520F0A058B0404B2F01C096
:1003700040E0616070E06E9FD0016F9FB00D7E9F86
:10038000B00D1124A138B10520F0A058B0406B2F5A
:1003900001C060E0216030E02E9FD0012F9FB00DA2
:1003A0003E9FB00D1124A138B10540F0A058B040D7
:1003B0002B2F05C020E040E060E001C020E0DC0120
:1003C000AA0FBB1FA80FB91FE0911201F0911301F2
:1003D000EA0FFB1FDF014D93618311962C93119758
:1003E00008951F9320910E0130910F0182179307FA
:1003F00008F058C0152F209104012F3F09F441C087
:10040000209104012230C0F12091040130E02F5FDF
:100410003F4F1160A12FB0E0A29FF001A39FF00D0C
:10042000B29FF00D1124E138F10520F0E058F040C2
:100430001F2F01C010E0616070E0629FF001639FB8
:10044000F00D729FF00D1124E138F10520F0E05815
:10045000F0406F2F01C060E0416050E0429FF0012A
:10046000439FF00D529FF00D1124E138F10540F04B
:10047000E058F0404F2F05C040E010E060E001C0C0
:1004800040E09C01220F331F280F391FE091120119
:10049000F0911301E20FF31FDF011D9361831196A9
:1004A0004C9311971F910895DF93CF93CDB7DEB78B
:1004B00027970FB6F894DEBF0FBECDBF0E946A012A
:1004C000F89480910C0190910D019F838E83A091EF
:1004D0001201B09113018D918983E0911001F09187
:1004E0001101808190911401892B8C8390818091DE
:1004F0001401809589238D838D818A8388E08B8385
:100500005C816D8149813B812A818E819F815083ED
:1005100047FD252F2083262F3A9539F0440F00C040
:100520000000608300C00000F2CF4D91608338E08E
:100530000000019761F7F0931101E09310014983E6
:100540003B832A839F838E8378940E946A01279637
:100550000FB6F894DEBF0FBECDBFCF91DF910895E7
:100560000F931F93DF93CF9300D0CDB7DEB78C01ED
:1005700069838981642F4A830E94810189818093E4
:1005800010011092110181E090E04A8102C0880FB1
:10059000991F4A95E2F78093140110930F0100937D
:1005A0000E01809102019091030190930D018093BF
:1005B0000C018FEF8093040180910C0190910D014B
:1005C0000E9422059093130180931201009749F035
:1005D00020910C0130910D0160E070E0A9010E94B2
:1005E00055060E94540280911201909113010E94BD
:1005F000BC058FEF90E7A2E081509040A040E1F76A
:1006000000C00000C801880F991F800F911F9093B0
:100610000D0180930C0180910C0190910D010E94BD
:1006200022059093130180931201009749F02091C5
:100630000C0130910D0160E070E0A9010E945506A7
:100640000F900F90CF91DF911F910F9108952091FE
:100650000C0130910D01809112019091130160E025
:1006600070E0A9010E9455060E945402089560E0BE
:1006700040E020E00E9493010E94540208954F92AE
:100680005F926F927F928F929F92AF92BF92CF9222
:10069000DF92EF92FF921F93CF93DF93182F8091F9
:1006A0000401181709F4B0C0309112012091130110
:1006B000412E55240894411C511C8091040190E066
:1006C0000196112399F5A901E52EE7017E01F22E8D
:1006D000E7016701EE24FF244C01AA24BB241EC0BD
:1006E000F60161916F016623A1F070E06F5F7F4FAB
:1006F000882777FD8095982FCB0177276627A5015E
:1007000094010E94000520583040404050403883FA
:1007100001C018820894E11CF11C219680910C0103
:1007200090910D01E816F906D8F26CC01F3F89F0D0
:10073000542C442466247724A901E52EE7017E0188
:10074000F42EE7016701EE24FF244C01AA24BB2408
:1007500052C0A901E52FEF017E01F42EE7016701E8
:10076000EE24FF244C01AA24BB241EC0F601619193
:100770006F016623A1F070E06F5F7F4F882777FDE0
:100780008095982FCB0177276627A50194010E94B9
:1007900000052058304040405040388301C0188246
:1007A0000894E11CF11C219680910C0190910D019F
:1007B000E816F906D8F226C0F60121916F0122232E
:1007C000A9F030E02F5F3F4F442737FD4095542F6D
:1007D000C301B2010E94C104A50194010E94000559
:1007E0002058304040405040388301C0188208945F
:1007F000E11CF11C219680910C0190910D01E816ED
:10080000F906D0F210930401DF91CF911F91FF9070
:10081000EF90DF90CF90BF90AF909F908F907F90A0
:100820006F905F904F900895EF92FF920F931F93F8
:10083000E42E262F30E040E050E0542F432F322F9B
:100840002227FF2400E010E02E293F29402B512BC6
:1008500090E0A0E0B0E0DC0199278827282B392B15
:100860004A2B5B2BB901CA011F910F91FF90EF90AA
:1008700008956F927F928F929F92AF92BF92CF9284
:10088000DF92EF92FF920F931F93CF93DF93E0904D
:100890000E01F0900F0100E010E03FEF832E912C4D
:1008A00025E5722EB3E06B2E5C01CC24DD2457C00D
:1008B0009C2F88278C1B9D0BB7010E94EC04600FB6
:1008C000711FCB01B4010E94EC04672D0E94E0046B
:1008D000292F220F290F662D0E94E004392F913015
:1008E00099F0422F4095822F90E0A0E0B0E03230A6
:1008F000C9F050E060E070E0BA0155274427BA2FF4
:10090000A92F982F882714C0422F409550E060E00F
:1009100070E0762F652F542F4427822F90E0A0E0BF
:10092000B0E006C050E060E070E0DC019927882765
:10093000482B592B6A2B7B2BCE010E94F10121966B
:10094000CE15DF0508F4B4CF0E945402C601B501EC
:100950000E9471010F5F1F4F0F3F110519F0C0E09A
:10096000D0E0EECFDF91CF911F910F91FF90EF90EC
:10097000DF90CF90BF90AF909F908F907F906F90BF
:100980000895629FD001739FF001829FE00DF11DD9
:10099000649FE00DF11D929FF00D839FF00D749FF9
:1009A000F00D659FF00D9927729FB00DE11DF91FA5
:1009B000639FB00DE11DF91FBD01CF011124089502
:1009C000991B79E004C0991F961708F0961B881FA1
:1009D0007A95C9F780950895AA1BBB1B51E107C002
:1009E000AA1FBB1FA617B70710F0A61BB70B881FBF
:1009F000991F5A95A9F780959095BC01CD0108954E
:100A0000A1E21A2EAA1BBB1BFD010DC0AA1FBB1F12
:100A1000EE1FFF1FA217B307E407F50720F0A21B84
:100A2000B30BE40BF50B661F771F881F991F1A94F1
:100A300069F760957095809590959B01AC01BD011B
:100A4000CF010895CF93DF938230910510F482E0B7
:100A500090E0E0911701F091180140E050E020E0B3
:100A600030E026C06081718168177907E0F068176F
:100A7000790781F4828193812115310531F0D90103
:100A800013969C938E9312972BC09093180180938A
:100A9000170126C04115510519F06417750718F4A0
:100AA000AB01E901DF019F0172816381E72FF62F1E
:100AB0003097C1F64115510501F1481B590B4430DF
:100AC000510580F412968D919C911397209719F0FF
:100AD0009B838A8304C09093180180931701FD01C2
:100AE000329646C0FD01E40FF51F81939193425069
:100AF000504011965C934E933BC02091150130916C
:100B000016012115310541F42091070130910801AA
:100B100030931601209315012091090130910A01AB
:100B20002115310541F42DB73EB740910501509193
:100B30000601241B350BE0911501F0911601E21717
:100B4000F307A0F42E1B3F0B2817390778F0AC01F0
:100B50004E5F5F4F2417350748F04E0F5F1F5093CD
:100B60001601409315018193919302C0E0E0F0E0FB
:100B7000CF01DF91CF910895CF93DF93009709F4D0
:100B800091C0FC013297138212826091170170911B
:100B900018016115710581F420813181280F391FF9
:100BA00080911501909116018217930799F5F093A2
:100BB0001601E093150176C0DB0180E090E002C0F1
:100BC000CD01D901AE17BF0748F412962D913C9183
:100BD000139721153105A1F7CD0121C0B383A2835D
:100BE000EF01499159919E01240F351FA217B307B8
:100BF00079F42D913C911197240F351F2E5F3F4FB3
:100C00003183208312962D913C9113973383228355
:100C1000009729F4F0931801E093170143C0DC0119
:100C20001396FC93EE9312974D915D91A40FB51F0F
:100C3000EA17FB0769F420813181240F351F2E5FED
:100C40003F4FEC0139832883228133813B832A8300
:100C5000E0E0F0E002C0FB01BC01DB0112968D91E7
:100C60009C9113970097B9F79B012E5F3F4F8D9191
:100C70009C911197820F931F40911501509116017D
:100C80004817590779F4309729F4109218011092F7
:100C9000170102C013821282225030403093160195
:100CA00020931501DF91CF910895DC0101C06D9370
:0C0CB00041505040E0F70895F894FFCF49
:0C0CBC004000C000FF20001901000000F3
:00000001FF
